:020000040800F2
:10000000FCFF002021180000D5160000D5160000C6
:10001000D5160000D5160000D5160000D516000034
:10002000D5160000D5160000D5160000D516000024
:10003000D5160000D5160000D5160000D516000014
:10004000D5160000D5160000D5160000D516000004
:10005000D5160000D5160000D5160000D5160000F4
:10006000D5160000D5160000D5160000D5160000E4
:10007000D5160000D5160000D5160000D5160000D4
:10008000D5160000D5160000D5160000D5160000C4
:10009000D5160000D5160000D5160000D5160000B4
:1000A000D5160000D5160000D5160000D5160000A4
:1000B000D5160000D5160000D5160000D516000094
:1000C000D5160000D5160000D5160000D516000084
:1000D000D5160000D5160000D5160000D516000074
:1000E000D5160000D5160000D5160000D516000064
:1000F000D5160000D5160000D5160000D516000054
:10010000D5160000D5160000D5160000D516000043
:10011000D5160000D5160000D5160000D516000033
:10012000D5160000D5160000D5160000D516000023
:10013000D5160000D5160000D5160000D516000013
:10014000D5160000D5160000D5160000D516000003
:1001500001480068704700BF2002002082B0CDF83F
:1001600000E0034619460191FFF7F2FF40F2E83143
:1001700000FB01F201990A601F490978C1F30311DC
:10018000C8B21E4909180878C0B21A1D1968C140C2
:10019000116019490988C1F3022188B21749091869
:1001A0000878C0B203F20802191D0968C140116045
:1001B00011490988C1F3C22188B210490918087889
:1001C000C0B203F20C02191D0968C14011600A494E
:1001D0000988C1F3813188B2094909180978C8B280
:1001E00003F2100203F20C010968B1FBF0F1116097
:1001F000DDF800E002B0704704100240601C00000F
:10020000BA13000083B0CDF800E000F0FF031A0934
:10021000104603F00F02134614E0194A02921FE041
:10022000184A02921CE0184A029219E0174A0292F8
:1002300016E0174A029213E0164A029210E0164A9C
:1002400002920DE00028E8D00128E9D00228EAD087
:100250000328EBD00428ECD00528EDD00628EED0FA
:10026000012212B29A40ADF8042002980A46BDF865
:10027000041000F07BF8DDF800E003B0704700BF29
:1002800000080140000C0140001001400014014032
:1002900000180140001C01400020014081B01949B4
:1002A00000EA0101084600220EE0042022E00820B6
:1002B00020E010201EE020201CE040201AE08020DA
:1002C00018E040F2001015E00F498842EDD00F49C8
:1002D0008842ECD00E498842EBD00E498842EAD0E1
:1002E0000D498842E9D00D498842E8D00C4988423E
:1002F000E7D010460B49096841EA000209490A6043
:1003000001B0704700FCFFFF00080140000C0140F5
:10031000001001400014014000180140001C014081
:10032000002001401810024081B000230360CB0080
:100330009BB242EA030304689BB244EA03030360EE
:10034000051D13141C462B6864F382032B6000F216
:100350001C0500242B6864F3CB232B600124036865
:1003600064F38613036001B07047FFFF81B0CDF8DE
:1003700000E08CB21546774B00EA03031E46184690
:10038000FFF78CFFB4F1FF0F0CD1734B9D4203D1EB
:100390004FF033333360D9E0422D03D14FF0443373
:1003A0003360D3E04FF6FF739C4214D16A4B9D42F9
:1003B00007D14FF033333360341D4FF033332360B4
:1003C000C4E0422D07D14FF044333360341D4FF069
:1003D00044332360BAE00021002005F001030BB193
:1003E00000211DE005F0020333B105F4C0730BB129
:1003F000082100E0042113E005F0040333B105F007
:1004000020030BB1042100E0002109E005F00803FE
:1004100033B105F020030BB10C2100E00821FFE708
:100420004E4B05EA03030BB1032009E005F400730A
:100430000BB1022004E005F480630BB10120FFE75B
:1004400005F00C030BB10143FFE704F0FF039BB27F
:10045000002B3BD0376800201FFA84F832462E4626
:1004600008282CD24FF0010303FA00F408EA040331
:10047000A34222D185004FF00F03AB40DB4307EAD4
:10048000030401FA05F344EA03031D4606F48173ED
:10049000B3F5817F05D102F214044FF001038340CC
:1004A000236006F08203822B05D102F210044FF084
:1004B0000103834023602F46FFE7401CD0E717600D
:1004C0001FFA88F00F463146164602E00F462946CD
:1004D000A0B2B0F1FF0F39D9331DD3F8008000224C
:1004E000082A30D202F208044FF0010303FA04F4A0
:1004F00000EA0403A34224D195004FF00F03AB4060
:10050000DB4308EA030807FA05F348EA030801F4A5
:100510008173B3F5817F07D106F2140502F2080456
:100520004FF00103A3402B6001F08203822B07D11F
:1005300006F2100502F208044FF00103A3402B60FD
:10054000FFE7521CCCE7331DC3F80080DDF800E064
:1005500001B0704700FCFFFF14000800000808000D
:1005600081B000F20C02116000F208021368C3F3BC
:10057000000202B9F8E700F20C02126890B201B072
:100580007047FFFF81B0ADF800100146BDF80000D4
:100590000B68C3F3C01202B9FAE70A1D106001B07C
:1005A0007047FFFF81B0CDF800E0012252B23E4912
:1005B0000A6000F268010B686FF0006103EA010253
:1005C000144603F00061C90E0B4602F00041B1F180
:1005D000004F02D135490A6801E035490A6804F440
:1005E0007021090C0E464FF6FF7104EA01010D4619
:1005F00004F44011B1F5401F0DD16FF0706102EAB3
:1006000001010E462A490A686FF070610A402849C4
:100610000A60324616E004F48011B1F5801F09D15A
:100620004FF00301B140C94302EA010141F070619A
:100630000A4607E0610D090105FA01F1C9430A40C4
:1006400042F070622BB1610D090105FA01F10A4314
:10065000FFE704F00041B1F1004F02D113490A60F5
:1006600001E013490A6040F2000A81464FEA8A011C
:1006700009EB01010968B1F1FF3F10D009F1340124
:100680004FEA8A03C91809680A4609EB0301096899
:1006900008461146FFF7B6FD0AF1010AE6E7DDF864
:1006A00000E001B0704700BF000342421C0001405F
:1006B0000400014089B0CDF800E0834698B28C4632
:1006C000BDF824100A9E04ACADF80410ADF8080083
:1006D0002046FFF743FDBDF80800BDF80410644C48
:1006E000A34512D101256DB2624C2560624D634C69
:1006F0002560634D634C2560634D644C2560644DFB
:10070000644C2560079C039456E0634CA34512D1CA
:1007100001256DB2614C2560614D584C2560614DDD
:10072000584C2560604D594C2560604D594C2560F2
:10073000069C039440E05E4CA34512D101256DB2A6
:100740005C4C25605C4D4D4C25605C4D4D4C2560EE
:100750005B4D4E4C25605B4D4E4C2560069C0394D2
:100760002AE0594CA34512D101256DB2574C2560A2
:10077000574D424C2560574D424C2560564D434CD9
:100780002560564D434C2560069C039414E0544C60
:10079000A34511D101256DB2524C2560524D374C05
:1007A0002560524D374C2560514D384C2560514DD8
:1007B000384C2560069C0394ADF80410ADF8080091
:1007C0003046FFF7EFFEBDF80800BDF804100BF14E
:1007D000100500242C600BF110052C680C432C60D4
:1007E0000BF10C0500242C6018B140F4806080B23D
:1007F000FFE70BF10C052C6804432C600BF10C0691
:100800000125346865F34D3434600BF10C06012585
:10081000346865F3C30434600BF10C0601253468B9
:1008200065F3820434600BF1140500242C60039DF1
:10083000192465434FEA8C04B5FBF4F76424B7FB35
:10084000F4F42601350964246C433C1B240104F2B2
:1008500032056424B5FBF4F404F00F0446EA040402
:100860000BF10805A4B22C60DDF800E009B0704778
:100870000038014038034242DD0A00002C0200200B
:10088000FFFFFFFF30020020FFFFFFFF34020020C8
:10089000FFFFFFFF3802002000440040C403424233
:1008A0006D090000FFFFFFFFFFFFFFFFFFFFFFFFDE
:1008B00000480040C803424289090000FFFFFFFFD3
:1008C000FFFFFFFFFFFFFFFF004C0040CC03424251
:1008D00051090000FFFFFFFFFFFFFFFFFFFFFFFFCA
:1008E00000500040D003424229090000FFFFFFFFF3
:1008F000FFFFFFFFFFFFFFFF01490860704700BFD8
:100900008001214201490860704700BFA081224256
:1009100001490860704700BFA48122420149086074
:10092000704700BFA881224281B0CDF800E081B2BB
:100930000348FFF727FEDDF800E001B0704700BF75
:100940000050004001490860704700BF90012142FB
:1009500081B0CDF800E081B20348FFF713FEDDF867
:1009600000E001B0704700BF004C004081B0CDF8FE
:1009700000E081B20348FFF705FEDDF800E001B0BA
:10098000704700BF0044004081B0CDF800E081B264
:100990000348FFF7F7FDDDF800E001B0704700BF46
:1009A0000048004001490860704700BFAC01224286
:1009B00001490860704700BFB00122420149086048
:1009C000704700BFA801224201490860704700BF7C
:1009D0008801224201490860704700BFB481224269
:1009E00001490860704700BF9881224201490860B0
:1009F000704700BF9481224201490860704700BFE0
:100A0000B081224201490860704700BFB081224294
:100A100040F27707C0F200077F1EFDD100BF00BF84
:100A200000BF00BF00BF704783B0CDF800E08AB2BE
:100A3000014690B283B2421E90B26BB10A78D4B232
:100A4000ADF804000291A0B2054C2468A0470299B9
:100A5000BDF80400491CEDE7DDF800E003B0704785
:100A60001802002001490860704700BF98812142A8
:100A700001490860704700BF9C812142014908601C
:100A8000704700BF9401214201490860704700BFD0
:100A90008C01224201490860704700BF98812142C1
:100AA00001490860704700BF9C81214201490860EC
:100AB000704700BFAC01224201490860704700BF87
:100AC000B001224201490860704700BFB88122424C
:100AD00001490860704700BFA801224281B0CDF8EB
:100AE00000E081B20348FFF74DFDDDF800E001B002
:100AF000704700BF0038014081B0CDF800E0019D93
:100B00002C4610B408B493B28AB201460348FFF7EA
:100B1000D1FD02B0DDF800E001B0704700440040B4
:100B200081B0CDF800E0019D2C4610B408B493B21A
:100B30008AB201460348FFF7BDFD02B0DDF800E0D0
:100B400001B070470038014081B0CDF800E04FF0AF
:100B5000420289B2FFF70AFCDDF800E001B07047FD
:100B600083B0CDF800E08DF8040002910B4C0C4BE3
:100B70001C600C4C0C4B1C60012464B20B4B1C60C1
:100B80001046FFF70FFD029A9DF804100848FFF782
:100B9000CBFBDDF800E003B0704700BFFFFFFFFFB5
:100BA00024020020310C000028020020BC03424235
:100BB000003C004081B0CDF800E0044A89B2FFF764
:100BC000D5FBDDF800E001B0704700BF140008005D
:100BD00081B0CDF800E0019D2C4610B408B493B26A
:100BE0008AB201460348FFF765FD02B0DDF800E078
:100BF00001B070470048004081B0CDF800E081B2FC
:100C00000348FFF7ADFCDDF800E001B0704700BF1E
:100C10000038004081B0CDF800E081B20348FFF712
:100C20009FFCDDF800E001B0704700BF00300140DC
:100C300081B0CDF800E081B20348FFF791FCDDF808
:100C400000E001B0704700BF003C004081B0CDF82B
:100C500000E0A9E0012905D140F220016548FFF735
:100C600073FF04E040F220016248FFF7A3FFBBE0FE
:100C7000012905D140F208015F48FFF765FF04E054
:100C800040F208015C48FFF795FFADE0012905D16E
:100C900044F200015948FFF757FF04E044F2000115
:100CA0005648FFF787FF9FE0012905D140F2004138
:100CB0005148FFF749FF04E040F200414E48FFF77A
:100CC00079FF91E0012905D140F600014A48FFF77C
:100CD0003BFF04E040F600014748FFF76BFF83E06D
:100CE000012905D141F200014348FFF72DFF04E03F
:100CF00041F200014048FFF75DFF75E0012905D191
:100D000041F200013D48FFF71FFF04E041F20001FE
:100D10003A48FFF74FFF67E0012905D140F600018F
:100D20003648FFF711FF04E040F600013348FFF7B3
:100D300041FF59E0012905D140F240012F48FFF75A
:100D400003FF04E040F240012C48FFF733FF4BE083
:100D5000012905D140F220012848FFF7F5FE04E003
:100D600040F220012548FFF725FF3DE0012905D18C
:100D700040F240012248FFF7E7FE04E040F2400164
:100D80001F48FFF717FF2FE0012905D140F280012E
:100D90001B48FFF7D9FE04E040F280011848FFF736
:100DA00009FF21E0012020E000283FF453AF012893
:100DB0003FF45EAF02283FF469AF03283FF474AFFD
:100DC00004283FF47FAF05283FF48AAF06283FF49C
:100DD00095AF0728A0D00828ACD00928B8D00A2899
:100DE000C4D00B28D0D0DDE70020DDF800E001B052
:100DF000704700BF0008014000100140001401408E
:100E0000000C014081B0CDF800E0094902B440F285
:100E1000000340F2000240F20001FFF76DFE01B056
:100E2000044A05490A600020DDF800E001B070477F
:100E3000501A00006D0900001002002081B0CDF8AA
:100E400000E00178CCB2A0B2034C2468A047002097
:100E5000DDF800E001B070471002002081B0CDF84D
:100E600000E0011D0A680168C8B21146034AFFF795
:100E700077FE0020DDF800E001B07047941B000011
:100E800081B0CDF800E0011D0A680168C8B21146C2
:100E9000034AFFF765FE0020DDF800E001B070476F
:100EA000941B000081B0CDF800E0094902B440F283
:100EB000000340F2000240F20001FFF789FE01B09A
:100EC000044A05490A600020DDF800E001B07047DF
:100ED000281B0000890900001002002081B0CDF815
:100EE00000E0094902B440F2000340F2000240F27F
:100EF0000001FFF715FE01B0044A05490A60002011
:100F0000DDF800E001B07047BC1A0000DD0A000007
:100F10001002002082B0CDF800E001AA010A89B2D7
:100F200001F00F011170117841F030011170521C65
:100F300000F0FF0111700020084C2468A047FFF763
:100F400067FD01A908460221FFF76EFD0120034C51
:100F50002468A047DDF800E002B0704714020020CA
:100F6000026803490A60011D0A6802490A60704765
:100F7000180200201C02002000F208010A68014942
:100F80000A6070471402002081B0CDF800E0A9E0AB
:100F9000012905D140F210016548FFF7D5FD04E0B5
:100FA00040F210016248FFF705FEBBE0012905D1C0
:100FB00040F204015F48FFF7C7FD04E040F204017E
:100FC0005C48FFF7F7FDADE0012905D142F20001D1
:100FD0005948FFF7B9FD04E042F200015648FFF717
:100FE000E9FD9FE0012905D140F200415148FFF79A
:100FF000ABFD04E040F200414E48FFF7DBFD91E01D
:10100000012905D140F600014A48FFF79DFD04E0A3
:1010100040F600014748FFF7CDFD83E0012905D1E7
:1010200041F200014348FFF78FFD04E041F2000167
:101030004048FFF7BFFD75E0012905D140F20101ED
:101040003B48FFF781FD04E040F201013848FFF71B
:10105000B1FD67E0012905D140F200413648FFF7B4
:1010600073FD04E040F200413348FFF7A3FD59E06F
:10107000012905D140F200212F48FFF765FD04E06A
:1010800040F200212C48FFF795FD4BE0012905D1E6
:1010900040F200112848FFF757FD04E040F200112C
:1010A0002548FFF787FD3DE0012905D140F24001C9
:1010B0002248FFF749FD04E040F240011F48FFF7D6
:1010C00079FD2FE0012905D140F280011B48FFF78F
:1010D0003BFD04E040F280011848FFF76BFD21E082
:1010E000012020E000283FF453AF01283FF45EAF19
:1010F00002283FF469AF03283FF474AF04283FF49B
:101100007FAF05283FF48AAF06283FF495AF072844
:10111000A0D00828ACD00928B8D00A28C4D00B2801
:10112000D0D0DDE70020DDF800E001B0704700BF5F
:10113000000801400010014000140140000C014073
:1011400081B0CDF800E0094902B440F2000340F25A
:10115000000240F20001FFF7CFFC01B0044A05494C
:101160000A600020DDF800E001B07047501A00006E
:101170006D0900001002002081B00A4601460020DF
:101180000D4611460A2805D20B1820221A70401C61
:1011900080B2F7E70B1800221A70401E80B20C18BC
:1011A0000A23B5FBF3F203FB1252303222700A22FB
:1011B000B5FBF2F2154602B902E0401E80B2EEE73E
:1011C00001B0704781B0CDF800E00E460021034623
:1011D000002804DA0121404200468FB201E018469F
:1011E0008FB23146FFF7C8FF0B213446B8B2002951
:1011F00008D963184A1E92B2A21812781A70491EB2
:1012000089B2F4E72022227070B1002081B220461A
:1012100042181278202A02D1491C89B2F8E74A1EE6
:1012200092B283182D221A70DDF800E001B07047E9
:1012300041F6FF27C0F2B7077F1EFDD100BF00BFF8
:1012400000BF00BF00BF704781B0CDF800E05FFA7B
:1012500081F95FFA82FA0FE05FFA8AF15FFA89F0AA
:10126000FFF792FE0DE05FFA8AF15FFA89F0FFF76F
:10127000EDFC06E0012004E00028EDD00128F2D0CA
:10128000F8E7DDF800E001B07047FFFF81B0CDF86E
:1012900000E0C2B2D0B2642AFFD940F2333101FB80
:1012A00000F21421B2FBF1F188B2FFF733FEDDF852
:1012B00000E001B07047FFFF81B0CDF800E00346C9
:1012C0000846FFF74DFE1846FFF756FEDDF800E032
:1012D00001B0704783B0CDF800E0024610460D2201
:1012E0008DF808200A228DF809201FE0FFF7A6FDDF
:1012F00023E002782AB10190FFF7A0FD0198401C7D
:10130000F7E71AE002782AB10190FFF797FD0198FC
:10131000401CF7E702AA1046FFF790FD0DF1090205
:101320001046FFF78BFD08E0062007E00029DDD01E
:101330000129DED00229E5D0F6E70020DDF800E043
:1013400003B0704781B0CDF800E08B4609E0584605
:10135000FFF796FD0AE05846FFF780FD06E0012002
:1013600004E00028F3D00128F5D0F8E7DDF800E02C
:1013700001B0704781B0CDF800E011E00846FFF7FA
:1013800091FD16E00846FFF73DFD12E00846FFF725
:10139000A5FD0EE00846FFF7D3FE0AE0012008E0B5
:1013A0000028EBD00128EDD02028EFD03028F1D054
:1013B000F4E7DDF800E001B0704702040608FFFF23
:1013C00044F67F77C0F212077F1EFDD100BF00BF39
:1013D00000BF00BF00BF70478BB0CDF800E05A4897
:1013E0000221FFF777FF59480221FFF773FF002022
:1013F0008DF828009DF82800652842D29DF8280025
:10140000FFF744FF01A801469DF82800FFF7DAFE28
:101410004F480121FFF75EFF01A80121FFF75AFFA6
:101420004C480221FFF756FF0DF113029DF82810DA
:10143000212000B2484300B21146FFF7C3FE4648E0
:101440000121FFF747FF0DF113000121FFF742FFD4
:1014500042480221FFF73EFF41480221FFF73AFFD1
:1014600048F2FF67C0F293377F1EFDD100BF00BF77
:1014700000BF00BF00BF9DF8280014308DF8280081
:10148000B8E738480221FFF725FF37480221FFF768
:1014900021FFFFF7CDFE35480221FFF71BFF34483F
:1014A0000221FFF717FF002009900998B0F5805F2F
:1014B0003CD20998FFF72EFD01A801460998FFF7D5
:1014C00081FE2C480121FFF705FF01A80221FFF74B
:1014D00001FF0DF113020999DC20414340F2111084
:1014E000B1FBF0F01146FFF76DFE23480121FFF735
:1014F000F1FE0DF113000121FFF7ECFE1F48022160
:10150000FFF7E8FE1E480221FFF7E4FE48F2FF67FE
:10151000C0F2933700BF00BF7F1EFDD100BF00BFE8
:1015200000BF099800F57A700990BEE715480221BE
:10153000FFF7D0FE14480221FFF7CCFEFFF778FE3C
:10154000DDF800E00BB07047000000201D00002017
:101550004000002054000020570000206B000020B5
:101560006F00002092000020B5000020D80000206D
:10157000F6000020190100202D010020410100206B
:1015800045010020680100208B01002081B0154832
:10159000006840F0010113480160134913480160DD
:1015A00010480168124801400E4801600D4801686A
:1015B0006FF4802001400B4801600C4801686FF413
:1015C000FE00014009480160064801686FF0A05024
:1015D0000140044801604FF000010648016001B07D
:1015E000704700BF001002400000FFF004100240EE
:1015F000FFFFF6FE2C10024081B0CDF800E0002283
:1016000002210020FFF720FE074801460020FFF7D7
:1016100099FE42F280510120FFF7ACFEFFF7D0FEA9
:10162000DDF800E001B07047701C000081B0CDF81B
:1016300000E00A490A48FFF73FFE0A480221FFF787
:1016400049FE09480221FFF745FE08480221FFF73D
:1016500041FEDDF800E001B0704700BF781C0000DB
:10166000001C0000AE010020C7010020EA0100209C
:1016700081B04FF000094FF0000CBDEB0A0F04DC05
:10168000BDEB0B0F01DBD446EA464BF8049BBBEBEA
:101690000A0FFAD1BCEB0A0F05DDE246D9F800B01B
:1016A0000BF1040BF1E701B07047FFFF81B01CF8AC
:1016B000019B0BF8019BBBEB0A0FF8D101B07047FF
:1016C00081B002490248016001B070474019010031
:1016D0002002002081B0FEE701B0704781B0CDF854
:1016E00000E0464A464B474C47494BF68030814222
:1016F00006D94648006840F002014448016011E004
:1017000045F6C050814206D94048006840F00101CA
:101710003E48016006E03D4801686FF00700014067
:101720003A480160FFF732FF3948036039480460E6
:10173000394802EA00013948016002F0010040B175
:1017400019463648006800F00200002800D1F8E78A
:1017500000E0194602F4803040B10B462F48006883
:1017600000F40030002800D1F8E700E00B4602F05A
:10177000805068B12948006840F0805127480160D6
:101780002648006800F00050002800D1F8E7FFE785
:1017900002F0806078B12148006840F080611F4805
:1017A000016011461A461D48006800F000600028DC
:1017B00000D1F8E701E011461A4601F0807070B1DF
:1017C0001648006840F080711448016011461348C3
:1017D000006800F0007000B9F9E70A46FFE70C481E
:1017E000006800F00C01900000F00C00814200D075
:1017F000F5E7DDF800E001B0704700BF81000105AA
:1018000002841D004406010040190100002002402E
:10181000041002402C100240FFFF0F000010024095
:10182000FFF75CFF00F06CFAFFF74AFF00F028FAC0
:10183000FFF7E2FEFFF7FAFEFFF7CEFDFCE7FEE75B
:10184000202020207E204441432050657263656E35
:10185000746167652056616C7565207E002D2D2DA5
:101860002D2D2D2D2D2D2D2D2D2D2D2D2D2D2D2DA8
:101870002D2D2D2D2D2D2D2D2D2D2D2D2D2D2D00C5
:101880002043757272656E74204441432056616C2A
:1018900075653A00202500204F75747075742056C8
:1018A0006F6C746167653A207E2000206D56002DB4
:1018B0002D2D2D2D2D2D2D2D2D2D2D2D2D2D2D2D58
:1018C0002D2D2D2D2D2D2D2D2D2D2D2D2D2D2D2D48
:1018D0002D002323232323232323232323232323F1
:1018E00023232323232323232323232323232323C8
:1018F00023232323002D2D2D2D2D2D2D2D2D2D2D6D
:101900002D2D2D2D2D2D2D2D2D2D2D2D2D2D2D2D07
:101910002D2D2D2D2D2D2D00202020207E204441E9
:10192000432031322D626974204461746120566114
:101930006C7565207E002D2D2D2D2D2D2D2D2D2D01
:101940002D2D2D2D2D2D2D2D2D2D2D2D2D2D2D2DC7
:101950002D2D2D2D2D2D2D2D002043757272656E90
:1019600074204441432056616C75653A00204F75E0
:101970007470757420566F6C746167653A207E20B0
:1019800000206D56002D2D2D2D2D2D2D2D2D2D2D85
:101990002D2D2D2D2D2D2D2D2D2D2D2D2D2D2D2D77
:1019A0002D2D2D2D2D2D2D002323232323232323E4
:1019B00023232323232323232323232323232323F7
:1019C00023232323232323232323002D2D2D2D2DD8
:1019D0002D2D2D2D2D2D2D2D2D2D2D2D2D2D2D2D37
:1019E0002D2D2D2D2D2D2D2D2D2D2D2D2D0020206E
:1019F0002020202020202020496E697469616C69B4
:101A0000736174696F6E002323232323232323230D
:101A10002323232323232323232323232323232396
:101A2000232323232323232323002D2D2D2D2D2D6D
:101A30002D2D2D2D2D2D2D2D2D2D2D2D2D2D2D2DD6
:101A40002D2D2D2D2D2D2D2D2D2D2D2D00FFFFFF7D
:101A50003500000036000000FFFFFFFF000000001F
:101A60000000000000000000000000000000000076
:101A70000000000000000000000000000000000066
:101A8000000000001808000018000000000000001E
:101A90000000000000000000000000000000000046
:101AA0000000000000000000000000000000000036
:101AB000000000000000000008000008090000000D
:101AC0000A000000FFFFFFFF000000000000000010
:101AD0000000000000000000000000000000000006
:101AE00000000000000000000000000000000000F6
:101AF00018080000180000000000000000000000AE
:101B000000000000000000000000000000000000D5
:101B100000000000000000000000000000000000C5
:101B20000000000004000000380000003900000040
:101B3000FFFFFFFF000000000000000000000000A9
:101B40000000000000000000000000000000000095
:101B50000000000000000000000000001808000065
:101B6000180000000000000000000000000000005D
:101B70000000000000000000000000000000000065
:101B80000000000000000000000000000000000055
:101B9000300014082A0000002B0000002C00000078
:101BA000FFFFFFFF00000000000000000000000039
:101BB0000000000000000000000000000000000025
:101BC00000000000000000001808000018080000D5
:101BD00018080000000000000000000000000000E5
:101BE00000000000000000000000000000000000F5
:101BF00000000000000000000000000000112008AC
:101C000045090000C9090000D5090000BD09000010
:101C1000A5090000B1090000F90800001D09000035
:101C20001109000005090000950A0000A10A000042
:101C3000FFFFFFFFFFFFFFFFFFFFFFFFFFFFFFFFB4
:101C4000FFFFFFFFFFFFFFFFFFFFFFFFFFFFFFFFA4
:101C5000FFFFFFFFFFFFFFFFFFFFFFFFFFFFFFFF94
:101C60000000000001020304010203040607080942
:101C70000700000004030000310C0000FFFFFFFF1D
:101C800000B5DFF814B0DFF814A0DFF814C0FFF7D8
:101C90000DFD00BD704700BF000000200D020020B8
:101CA00040180000FFFFFFFFFFFFFFFFFFFFFFFFE8
:101CB000FFFFFFFFFFFFFFFFFFFFFFFFFFFFFFFF34
:101CC000FFFFFFFFFFFFFFFFFFFFFFFFFFFFFFFF24
:101CD000FFFFFFFFFFFFFFFFFFFFFFFFFFFFFFFF14
:101CE000FFFFFFFFFFFFFFFFFFFFFFFFFFFFFFFF04
:101CF000FFFFFFFFFFFFFFFFFFFFFFFFFFFFFFFFF4
:101D000000B5DFF810B0DFF810A0FFF7B1FC00BDA0
:101D1000704700BF000000203C020020FFFFFFFFD3
:00000001FF
